{
  "abi": [
    {
      "anonymous": false,
      "inputs": [
        {
          "indexed": true,
          "internalType": "address",
          "name": "fundMeContract",
          "type": "address"
        },
        {
          "indexed": true,
          "internalType": "address",
          "name": "owner",
          "type": "address"
        }
      ],
      "name": "FundMeContractCreation",
      "type": "event"
    },
    {
      "inputs": [],
      "name": "createFundMeContract",
      "outputs": [],
      "stateMutability": "nonpayable",
      "type": "function"
    },
    {
      "inputs": [
        {
          "internalType": "uint256",
          "name": "index",
          "type": "uint256"
        }
      ],
      "name": "getFundMeContract",
      "outputs": [
        {
          "internalType": "contract FundMe",
          "name": "",
          "type": "address"
        }
      ],
      "stateMutability": "view",
      "type": "function"
    }
  ],
  "bytecode": {
    "object": "0x608060405234801561001057600080fd5b5061033f806100206000396000f3fe608060405234801561001057600080fd5b50600436106100365760003560e01c8063db899c8b1461003b578063f14f71cb1461006a575b600080fd5b61004e6100493660046101b2565b610074565b6040516001600160a01b03909116815260200160405180910390f35b6100726100ee565b005b6000805482106100c05760405162461bcd60e51b8152602060048201526013602482015272496e646578206f7574206f6620626f756e647360681b604482015260640160405180910390fd5b600082815481106100d3576100d36101cb565b6000918252602090912001546001600160a01b031692915050565b6000336040516100fd906101a5565b6001600160a01b039091168152602001604051809103906000f080158015610129573d6000803e3d6000fd5b50600080546001810182558180527f290decd9548b62a8d60345a988386fc84ba6bc95484008f6362f93160ef3e5630180546001600160a01b0319166001600160a01b038416908117909155604051929350339290917ffdafa1071c3e1bf40ddd6e43f85de41be11b45bb305f1817ea602fc1a708cb9691a350565b610128806101e283390190565b6000602082840312156101c457600080fd5b5035919050565b634e487b7160e01b600052603260045260246000fdfe60a060405234801561001057600080fd5b5060405161012838038061012883398101604081905261002f91610040565b6001600160a01b0316608052610070565b60006020828403121561005257600080fd5b81516001600160a01b038116811461006957600080fd5b9392505050565b60805160a06100886000396000602f015260a06000f3fe6080604052348015600f57600080fd5b506004361060285760003560e01c8063893d20e814602d575b600080fd5b7f00000000000000000000000000000000000000000000000000000000000000006040516001600160a01b03909116815260200160405180910390f3fea264697066735822122065f6fa41450be858780b356c6a7b28da588d8f07aec672440ccdda012ef83ad864736f6c63430008150033a264697066735822122010768e562c58d9a25e07de86ff774f5db528c85d6f076bdbcc95dde571471cda64736f6c63430008150033",
    "linkReferences": {}
  },
  "methodIdentifiers": {
    "createFundMeContract()": "f14f71cb",
    "getFundMeContract(uint256)": "db899c8b"
  },
  "id": 21
}