{
  "abi": [
    {
      "inputs": [],
      "name": "FundMeFactory__ContractDeletedOrDoesNotExist",
      "type": "error"
    },
    {
      "anonymous": false,
      "inputs": [
        {
          "indexed": true,
          "internalType": "address",
          "name": "fundMeContract",
          "type": "address"
        },
        {
          "indexed": true,
          "internalType": "address",
          "name": "owner",
          "type": "address"
        }
      ],
      "name": "FundMeContractCreation",
      "type": "event"
    },
    {
      "inputs": [],
      "name": "createFundMeContract",
      "outputs": [],
      "stateMutability": "nonpayable",
      "type": "function"
    },
    {
      "inputs": [],
      "name": "getFundMeContract",
      "outputs": [
        {
          "internalType": "address",
          "name": "",
          "type": "address"
        }
      ],
      "stateMutability": "view",
      "type": "function"
    }
  ],
  "bytecode": {
    "object": "0x608060405234801561001057600080fd5b506103d4806100206000396000f3fe608060405234801561001057600080fd5b50600436106100365760003560e01c8063e65224251461003b578063f14f71cb1461005f575b600080fd5b610043610069565b6040516001600160a01b03909116815260200160405180910390f35b6100676100a5565b005b336000908152602081905260408120546001600160a01b0316806100a057604051634f700ce760e11b815260040160405180910390fd5b919050565b6000336040516100b49061013b565b6001600160a01b039091168152602001604051809103906000f0801580156100e0573d6000803e3d6000fd5b503360008181526020819052604080822080546001600160a01b0319166001600160a01b038616908117909155905193945091927ffdafa1071c3e1bf40ddd6e43f85de41be11b45bb305f1817ea602fc1a708cb969190a350565b610256806101498339019056fe60a060405234801561001057600080fd5b5060405161025638038061025683398101604081905261002f91610040565b6001600160a01b0316608052610070565b60006020828403121561005257600080fd5b81516001600160a01b038116811461006957600080fd5b9392505050565b6080516101cc61008a6000396000607e01526101cc6000f3fe6080604052600436106100385760003560e01c806312065fe014610044578063893d20e814610064578063ed88c68e146100a857600080fd5b3661003f57005b600080fd5b34801561005057600080fd5b506040514781526020015b60405180910390f35b34801561007057600080fd5b506040516001600160a01b037f000000000000000000000000000000000000000000000000000000000000000016815260200161005b565b6100b06100b2565b005b604051600090309034908381818185875af1925050503d80600081146100f4576040519150601f19603f3d011682016040523d82523d6000602084013e6100f9565b606091505b505090508061011b57604051631241509760e21b815260040160405180910390fd5b336000908152602081905260408120805434929061013a90849061016f565b9091555050604051349033907f0939f6f4877faf071412e527bc4c6d0bd65ad077e52b57334f7765265647a7f190600090a350565b8082018082111561019057634e487b7160e01b600052601160045260246000fd5b9291505056fea26469706673582212207084f8c8d2b1890b71625b0bf5357712e35461c01edc446d645ad8dd112a203864736f6c63430008150033a264697066735822122018e53025f132ebf1d0a0f209772299d8d284a6ce16302d5cfd61f95ba0f2129264736f6c63430008150033",
    "linkReferences": {}
  },
  "methodIdentifiers": {
    "createFundMeContract()": "f14f71cb",
    "getFundMeContract()": "e6522425"
  },
  "id": 21
}