{
  "abi": [
    {
      "inputs": [],
      "name": "FundMeFactory__ContractDeletedOrDoesNotExist",
      "type": "error"
    },
    {
      "inputs": [],
      "name": "FundMeFactory__NotTheOwner",
      "type": "error"
    },
    {
      "anonymous": false,
      "inputs": [
        {
          "indexed": true,
          "internalType": "address",
          "name": "fundMeContract",
          "type": "address"
        },
        {
          "indexed": true,
          "internalType": "address",
          "name": "owner",
          "type": "address"
        }
      ],
      "name": "FundMeContractCreation",
      "type": "event"
    },
    {
      "inputs": [],
      "name": "createFundMeContract",
      "outputs": [],
      "stateMutability": "nonpayable",
      "type": "function"
    },
    {
      "inputs": [],
      "name": "getFundMeContract",
      "outputs": [
        {
          "internalType": "address",
          "name": "",
          "type": "address"
        }
      ],
      "stateMutability": "view",
      "type": "function"
    },
    {
      "inputs": [
        {
          "internalType": "address",
          "name": "ownerContract",
          "type": "address"
        }
      ],
      "name": "removeFundeMeContract",
      "outputs": [],
      "stateMutability": "nonpayable",
      "type": "function"
    }
  ],
  "bytecode": {
    "object": "0x608060405234801561001057600080fd5b50610685806100206000396000f3fe608060405234801561001057600080fd5b50600436106100415760003560e01c80639553b73514610046578063e65224251461005b578063f14f71cb1461007f575b600080fd5b6100596100543660046101cf565b610087565b005b6100636100e8565b6040516001600160a01b03909116815260200160405180910390f35b610059610124565b6001600160a01b038181166000908152602081905260409020541633146100c15760405163ba2d036360e01b815260040160405180910390fd5b6001600160a01b0316600090815260208190526040902080546001600160a01b0319169055565b336000908152602081905260408120546001600160a01b03168061011f57604051634f700ce760e11b815260040160405180910390fd5b919050565b60003330604051610134906101c2565b6001600160a01b03928316815291166020820152604001604051809103906000f080158015610167573d6000803e3d6000fd5b503360008181526020819052604080822080546001600160a01b0319166001600160a01b038616908117909155905193945091927ffdafa1071c3e1bf40ddd6e43f85de41be11b45bb305f1817ea602fc1a708cb969190a350565b6104508061020083390190565b6000602082840312156101e157600080fd5b81356001600160a01b03811681146101f857600080fd5b939250505056fe60c060405234801561001057600080fd5b5060405161045038038061045083398101604081905261002f9161005e565b6001600160a01b039182166080521660a052610098565b6001600160a01b038116811461005b57600080fd5b50565b6000806040838503121561007157600080fd5b825161007c81610046565b602084015190925061008d81610046565b809150509250929050565b60805160a0516103806100d0600039600081816093015261015301526000818160da0152818161011101526101d201526103806000f3fe60806040526004361061004e5760003560e01c806312065fe01461005a5780633ccfd60b1461007a57806388cc58e414610084578063893d20e8146100cb578063ed88c68e146100fe57600080fd5b3661005557005b600080fd5b34801561006657600080fd5b506040514781526020015b60405180910390f35b610082610106565b005b34801561009057600080fd5b507f00000000000000000000000000000000000000000000000000000000000000005b6040516001600160a01b039091168152602001610071565b3480156100d757600080fd5b507f00000000000000000000000000000000000000000000000000000000000000006100b3565b610082610266565b336001600160a01b037f0000000000000000000000000000000000000000000000000000000000000000161461014f5760405163579610db60e01b815260040160405180910390fd5b60007f0000000000000000000000000000000000000000000000000000000000000000604051639553b73560e01b81523060048201529091506001600160a01b03821690639553b73590602401600060405180830381600087803b1580156101b657600080fd5b505af11580156101ca573d6000803e3d6000fd5b5050505060007f00000000000000000000000000000000000000000000000000000000000000006001600160a01b03164760405160006040518083038185875af1925050503d806000811461023b576040519150601f19603f3d011682016040523d82523d6000602084013e610240565b606091505b505090508061026257604051630f02e6d360e41b815260040160405180910390fd5b5050565b604051600090309034908381818185875af1925050503d80600081146102a8576040519150601f19603f3d011682016040523d82523d6000602084013e6102ad565b606091505b50509050806102cf57604051631241509760e21b815260040160405180910390fd5b33600090815260208190526040812080543492906102ee908490610323565b9091555050604051349033907f0939f6f4877faf071412e527bc4c6d0bd65ad077e52b57334f7765265647a7f190600090a350565b8082018082111561034457634e487b7160e01b600052601160045260246000fd5b9291505056fea264697066735822122079be37340324cbf8fea6b04c5316a2cb0c49ea66ca2fae0c96460b1501e649e564736f6c63430008150033a26469706673582212200dcc8f659f24d429fb353f1fcb180bbb5a023afd695a94909ab385db3ef0d44464736f6c63430008150033",
    "linkReferences": {}
  },
  "methodIdentifiers": {
    "createFundMeContract()": "f14f71cb",
    "getFundMeContract()": "e6522425",
    "removeFundeMeContract(address)": "9553b735"
  },
  "id": 21
}