{
  "abi": [
    {
      "inputs": [
        {
          "internalType": "address payable",
          "name": "owner",
          "type": "address"
        },
        {
          "internalType": "address",
          "name": "factory",
          "type": "address"
        }
      ],
      "stateMutability": "nonpayable",
      "type": "constructor"
    },
    {
      "inputs": [],
      "name": "FundMe__AddressHasNotFundedContract",
      "type": "error"
    },
    {
      "inputs": [],
      "name": "FundMe__DonationFailed",
      "type": "error"
    },
    {
      "inputs": [],
      "name": "FundMe__InvalidDonationAmount",
      "type": "error"
    },
    {
      "inputs": [],
      "name": "FundMe__NotOwner",
      "type": "error"
    },
    {
      "inputs": [],
      "name": "FundMe__WithdrawFailed",
      "type": "error"
    },
    {
      "anonymous": false,
      "inputs": [
        {
          "indexed": true,
          "internalType": "address",
          "name": "funder",
          "type": "address"
        },
        {
          "indexed": true,
          "internalType": "uint256",
          "name": "amountFunded",
          "type": "uint256"
        }
      ],
      "name": "ContractFunded",
      "type": "event"
    },
    {
      "inputs": [],
      "name": "donate",
      "outputs": [],
      "stateMutability": "payable",
      "type": "function"
    },
    {
      "inputs": [],
      "name": "getBalance",
      "outputs": [
        {
          "internalType": "uint256",
          "name": "",
          "type": "uint256"
        }
      ],
      "stateMutability": "view",
      "type": "function"
    },
    {
      "inputs": [],
      "name": "getFactory",
      "outputs": [
        {
          "internalType": "address",
          "name": "",
          "type": "address"
        }
      ],
      "stateMutability": "view",
      "type": "function"
    },
    {
      "inputs": [
        {
          "internalType": "address",
          "name": "funder",
          "type": "address"
        }
      ],
      "name": "getFunderBalance",
      "outputs": [
        {
          "internalType": "uint256",
          "name": "",
          "type": "uint256"
        }
      ],
      "stateMutability": "view",
      "type": "function"
    },
    {
      "inputs": [],
      "name": "getOwner",
      "outputs": [
        {
          "internalType": "address",
          "name": "",
          "type": "address"
        }
      ],
      "stateMutability": "view",
      "type": "function"
    },
    {
      "inputs": [],
      "name": "withdraw",
      "outputs": [],
      "stateMutability": "payable",
      "type": "function"
    },
    {
      "stateMutability": "payable",
      "type": "receive"
    }
  ],
  "bytecode": {
    "object": "0x60c060405234801561001057600080fd5b5060405161052238038061052283398101604081905261002f9161005e565b6001600160a01b039182166080521660a052610098565b6001600160a01b038116811461005b57600080fd5b50565b6000806040838503121561007157600080fd5b825161007c81610046565b602084015190925061008d81610046565b809150509250929050565b60805160a0516104526100d06000396000818160a0015261018001526000818160e70152818161013e01526101ff01526104526000f3fe6080604052600436106100595760003560e01c806312065fe0146100655780633ccfd60b1461008757806388cc58e414610091578063893d20e8146100d8578063b8b3d85b1461010b578063ed88c68e1461012b57600080fd5b3661006057005b600080fd5b34801561007157600080fd5b50475b6040519081526020015b60405180910390f35b61008f610133565b005b34801561009d57600080fd5b507f00000000000000000000000000000000000000000000000000000000000000005b6040516001600160a01b03909116815260200161007e565b3480156100e457600080fd5b507f00000000000000000000000000000000000000000000000000000000000000006100c0565b34801561011757600080fd5b506100746101263660046103c5565b610293565b61008f6102e7565b336001600160a01b037f0000000000000000000000000000000000000000000000000000000000000000161461017c5760405163579610db60e01b815260040160405180910390fd5b60007f0000000000000000000000000000000000000000000000000000000000000000604051639553b73560e01b81523060048201529091506001600160a01b03821690639553b73590602401600060405180830381600087803b1580156101e357600080fd5b505af11580156101f7573d6000803e3d6000fd5b5050505060007f00000000000000000000000000000000000000000000000000000000000000006001600160a01b03164760405160006040518083038185875af1925050503d8060008114610268576040519150601f19603f3d011682016040523d82523d6000602084013e61026d565b606091505b505090508061028f57604051630f02e6d360e41b815260040160405180910390fd5b5050565b6001600160a01b03811660009081526020819052604081205481036102cb5760405163f81c85b360e01b815260040160405180910390fd5b506001600160a01b031660009081526020819052604090205490565b6000341161030857604051635c4e2e5d60e01b815260040160405180910390fd5b604051600090309034908381818185875af1925050503d806000811461034a576040519150601f19603f3d011682016040523d82523d6000602084013e61034f565b606091505b505090508061037157604051631241509760e21b815260040160405180910390fd5b33600090815260208190526040812080543492906103909084906103f5565b9091555050604051349033907f0939f6f4877faf071412e527bc4c6d0bd65ad077e52b57334f7765265647a7f190600090a350565b6000602082840312156103d757600080fd5b81356001600160a01b03811681146103ee57600080fd5b9392505050565b8082018082111561041657634e487b7160e01b600052601160045260246000fd5b9291505056fea2646970667358221220f4537bec71549ee3f98f4398840c990cf742012d3d143d3fd1fcf49d6fb4fd4464736f6c63430008150033",
    "linkReferences": {}
  },
  "methodIdentifiers": {
    "donate()": "ed88c68e",
    "getBalance()": "12065fe0",
    "getFactory()": "88cc58e4",
    "getFunderBalance(address)": "b8b3d85b",
    "getOwner()": "893d20e8",
    "withdraw()": "3ccfd60b"
  },
  "id": 20
}