{
  "abi": [
    {
      "inputs": [
        {
          "internalType": "address payable",
          "name": "owner",
          "type": "address"
        }
      ],
      "stateMutability": "nonpayable",
      "type": "constructor"
    },
    {
      "inputs": [],
      "name": "FundeMe__NotOwner",
      "type": "error"
    },
    {
      "inputs": [],
      "name": "getOwner",
      "outputs": [
        {
          "internalType": "address",
          "name": "",
          "type": "address"
        }
      ],
      "stateMutability": "view",
      "type": "function"
    }
  ],
  "bytecode": {
    "object": "0x60a060405234801561001057600080fd5b5060405161012838038061012883398101604081905261002f91610040565b6001600160a01b0316608052610070565b60006020828403121561005257600080fd5b81516001600160a01b038116811461006957600080fd5b9392505050565b60805160a06100886000396000602f015260a06000f3fe6080604052348015600f57600080fd5b506004361060285760003560e01c8063893d20e814602d575b600080fd5b7f00000000000000000000000000000000000000000000000000000000000000006040516001600160a01b03909116815260200160405180910390f3fea264697066735822122065f6fa41450be858780b356c6a7b28da588d8f07aec672440ccdda012ef83ad864736f6c63430008150033",
    "linkReferences": {}
  },
  "methodIdentifiers": {
    "getOwner()": "893d20e8"
  },
  "id": 20
}