{
  "abi": [
    {
      "inputs": [
        {
          "internalType": "address payable",
          "name": "owner",
          "type": "address"
        }
      ],
      "stateMutability": "nonpayable",
      "type": "constructor"
    },
    {
      "inputs": [],
      "name": "FundMe__DonationFailed",
      "type": "error"
    },
    {
      "inputs": [],
      "name": "FundMe__NotOwner",
      "type": "error"
    },
    {
      "anonymous": false,
      "inputs": [
        {
          "indexed": true,
          "internalType": "address",
          "name": "funder",
          "type": "address"
        },
        {
          "indexed": true,
          "internalType": "uint256",
          "name": "amountFunded",
          "type": "uint256"
        }
      ],
      "name": "ContractFunded",
      "type": "event"
    },
    {
      "inputs": [],
      "name": "donate",
      "outputs": [],
      "stateMutability": "payable",
      "type": "function"
    },
    {
      "inputs": [],
      "name": "getBalance",
      "outputs": [
        {
          "internalType": "uint256",
          "name": "",
          "type": "uint256"
        }
      ],
      "stateMutability": "view",
      "type": "function"
    },
    {
      "inputs": [],
      "name": "getOwner",
      "outputs": [
        {
          "internalType": "address",
          "name": "",
          "type": "address"
        }
      ],
      "stateMutability": "view",
      "type": "function"
    },
    {
      "stateMutability": "payable",
      "type": "receive"
    }
  ],
  "bytecode": {
    "object": "0x60a060405234801561001057600080fd5b5060405161025638038061025683398101604081905261002f91610040565b6001600160a01b0316608052610070565b60006020828403121561005257600080fd5b81516001600160a01b038116811461006957600080fd5b9392505050565b6080516101cc61008a6000396000607e01526101cc6000f3fe6080604052600436106100385760003560e01c806312065fe014610044578063893d20e814610064578063ed88c68e146100a857600080fd5b3661003f57005b600080fd5b34801561005057600080fd5b506040514781526020015b60405180910390f35b34801561007057600080fd5b506040516001600160a01b037f000000000000000000000000000000000000000000000000000000000000000016815260200161005b565b6100b06100b2565b005b604051600090309034908381818185875af1925050503d80600081146100f4576040519150601f19603f3d011682016040523d82523d6000602084013e6100f9565b606091505b505090508061011b57604051631241509760e21b815260040160405180910390fd5b336000908152602081905260408120805434929061013a90849061016f565b9091555050604051349033907f0939f6f4877faf071412e527bc4c6d0bd65ad077e52b57334f7765265647a7f190600090a350565b8082018082111561019057634e487b7160e01b600052601160045260246000fd5b9291505056fea26469706673582212207084f8c8d2b1890b71625b0bf5357712e35461c01edc446d645ad8dd112a203864736f6c63430008150033",
    "linkReferences": {}
  },
  "methodIdentifiers": {
    "donate()": "ed88c68e",
    "getBalance()": "12065fe0",
    "getOwner()": "893d20e8"
  },
  "id": 20
}